:100000000C9469000C9486000C9486000C94860075
:100010000C9486000C9486000C94E2010C948600EB
:100020000C9486000C9498010C9486000C94860025
:100030000C9486000C9486000C9486000C94860028
:100040000C9486000C9486000C9486000C94860018
:100050000C948600000039003600330030000000A8
:10006000000200000000000000000504000700007E
:100070000000000000000000000000000000000080
:100080003B0038003500320000003A0037003400F1
:100090003100020202020202020204040404040407
:1000A000040403030303030303030101010101012A
:1000B0000101010204081020408001020408102000
:1000C0004080010204081020408001020408102032
:1000D000408011241FBECFE5D4E0DEBFCDBF10E0CD
:1000E000A0E6B0E0E4E4F5E002C005900D92A03790
:1000F000B107D9F720E0A0E7B0E001C01D92A93711
:10010000B207E1F70E94EC010C94A0020C940000ED
:1001100090E0FC01EE54FF4F24918E569F4FFC015E
:100120008491882399F090E0880F991FFC01E8578B
:10013000FF4FA591B491FC01E258FF4F8591949136
:100140008FB7F894EC91E22BEC938FBF089590E079
:10015000FC01E25AFF4F2491FC01EE54FF4F349111
:10016000FC01EE56FF4FE491EE23C9F0222339F053
:100170002430F1F0A8F4213011F1223001F1F0E047
:10018000EE0FFF1FE258FF4FA591B4918FB7F8947F
:10019000EC91611118C030953E233C938FBF0895B8
:1001A000253051F0273059F785B58F7D85BDE7CFD4
:1001B0008FB58F778FBDE3CF8FB58F7DFBCF83B7A3
:1001C0008F7D83BFDCCF3E2BE8CF3FB7F894809183
:1001D000750090917600A0917700B091780022B7D9
:1001E00008B600FE05C02F3F19F00196A11DB11DF4
:1001F0003FBFBA2FA92F982F8827BC01CD01620FCE
:10020000711D811D911D46E0660F771F881F991F84
:100210004A95D1F708958F929F92AF92BF92CF9255
:10022000DF92EF92FF924B015C010E94E5006B01AF
:100230007C010E94E5006C197D098E099F09683ECA
:10024000734081059105A8F321E0821A9108A10865
:10025000B10888EEC80E83E0D81EE11CF11C8114A1
:100260009104A104B10429F7FF90EF90DF90CF90A3
:10027000BF90AF909F908F9008950F931F93CF934F
:10028000DF93062FE82FF0E0E05AFF4F1081C12FD7
:10029000D0E0BE0186E0759567958A95E1F76170BB
:1002A0008AE00E94A700BE0195E0759567959A9532
:1002B000E1F761708EE00E94A700BE0124E0759511
:1002C00067952A95E1F7617085E00E94A700BE015D
:1002D00033E0759567953A95E1F7617083E00E9488
:1002E000A700BE017595679575956795617082E069
:1002F0000E94A700D595C7956C2F61708BE00E9476
:10030000A700612F617086E00E94A70061E0802F46
:100310000E94A70063E070E080E090E00E940B0183
:1003200060E0802FDF91CF911F910F910C94A70077
:100330001F920F920FB60F9211242F933F938F931A
:100340009F93AF93BF938091710090917200A091A1
:100350007300B09174003091700020E3230F2D37AB
:1003600068F123EB230F4196A11DB11D209370006E
:100370008093710090937200A0937300B093740007
:100380008091750090917600A0917700B0917800EF
:100390000196A11DB11D8093750090937600A093E6
:1003A0007700B0937800BF91AF919F918F913F916B
:1003B0002F910F900FBE0F901F9018954096A11D82
:1003C000B11DD4CF1F920F920FB60F9211240F9030
:1003D0000FBE0F901F901895789483B7836083BFEA
:1003E00083B7886483BF89B7816089BF82E08EBD8F
:1003F0008FB581608FBD85B5846085BD85B580640E
:1004000085BD83E886B91AB8F89489E00E9488000F
:100410008CE00E9488008DE00E94880087E00E94A6
:1004200088008AE00E9488008EE00E94880085E0B3
:100430000E94880083E00E94880082E00E94880079
:100440008BE00E94880086E00E94880084E00E9481
:10045000880060E089E00E94A70060E08CE00E94D4
:10046000A70060E08DE00E94A70060E087E00E94A6
:10047000A70061E084E00E94A700EAE8F0E0A5910F
:10048000B4911C92EEE8F0E0A591B4911C92B89A58
:10049000C09A8EB588608EBD8EB581608EBD8EB5DA
:1004A00082608EBD88EC9EE29BBD8ABD89B780616B
:1004B00089BF89B7806189BF789436E5E32E30E043
:1004C000F32E0AE510E040E0C42E40E0D42EF70100
:1004D000A591B4919C9188E0C0E0CC0F292F2170A8
:1004E000C22B96958150C9F7F801A591B4918C91D2
:1004F000DC2FC82F69E08D2F82958F700E943D01FF
:100500006CE08D2F8F700E943D01CE0124E0969506
:1005100087952A95E1F76DE08F700E943D0167E0B5
:100520008C2F8F700E943D0165E070E080E090E0CC
:100530000E940B01C114D10451F20E940000C7CFE8
:04054000F894FFCF5D
:10054400014F12064C24200F000408603142303859
:00000001FF
